:100000000A128A110C280134FE00030EF0000A08BF
:10001000F1000A168A15D42C0A128A110F288317A8
:10002000A930FD001A30FE00CF30FF009030840070
:100030000A168A15AB220A128A118313EF30FD00CB
:100040001930FE00F830FF00EC3084000A168A15E3
:10005000AB220A128A110A128A1103200A128A118B
:10006000DA000A128A11FF270A128A11FB0083178D
:10007000C0308400D2300A168A1501220A128A1171
:100080008313A0308400EC300A168A1501220A126C
:100090008A11D401D501D601D701D801D901F901BE
:1000A000FA0183010A128A15102C83120313BE0071
:1000B000DF30F6009030F700C930F8000A168A15D4
:1000C00042240A128A118312031354085504031D93
:1000D0006A286B2877280530F6009130F7008030C9
:1000E000F8000A168A1542240A128A119B28540322
:1000F0005504031D7C287D2889281430F600913092
:10010000F7008030F8000A168A1542240A128A1174
:100110009B28023054065504031D8F2890289B28E5
:10012000C830F6009030F7008030F8000A168A15C3
:1001300042240A128A110A30831603132306240468
:10014000031DA328A428B328831203135A080319F4
:10015000AA28AC280130AD280030DA00831603133A
:10016000A301A401B9280130A3070318A40A003091
:10017000A4078312031354085504031DC028C12883
:100180004229C130A4008316031365080A168A1594
:10019000BA220A128A11C23083120313A4008316F2
:1001A000031366080A168A15BA220A128A11C33086
:1001B00083120313A4003A300A168A15BA220A12CF
:1001C0008A11C43083120313A40083160313670833
:1001D0000A168A15BA220A128A11C530831203132D
:1001E000A4008316031368080A168A15BA220A1295
:1001F0008A11C63083120313A4003A300A168A15F6
:10020000BA220A128A11831203135A08031D0929FC
:100210000A290F292030B2000030B3001A298316B2
:100220000313690883120313AB00AC012B08B2005F
:100230002C08B300C730A40032080A168A15BA2267
:100240000A128A11831203135A08031D2829292927
:100250002E292030B4000030B5003929831603134D
:100260006A0883120313AB00AC012B08B4002C08FE
:10027000B500C830A40034080A168A15BA220A123A
:100280008A11462A54035504031D47294829C929C0
:10029000C130A4008316031365080A168A15BA2212
:1002A0000A128A11C23083120313A40083160313A7
:1002B00066080A168A15BA220A128A11C3308312F6
:1002C0000313A4003A300A168A15BA220A128A11B8
:1002D000831203135A08031D6E296F2974292030D5
:1002E000B6000030B7007F29831603136708831216
:1002F0000313AB00AC012B08B6002C08B700C430C8
:10030000A40036080A168A15BA220A128A11831224
:1003100003135A08031D8D298E2993292030B80014
:100320000030B9009E298316031368088312031353
:10033000AB00AC012B08B8002C08B900C530A400F4
:1003400038080A168A15BA220A128A11C630831290
:100350000313A4003A300A168A15BA220A128A1127
:10036000C73083120313A4008316031369080A1607
:100370008A15BA220A128A11C83083120313A40004
:10038000831603136A080A168A15BA220A128A11FA
:10039000462A023054065504031DCF29D029462A87
:1003A0005A08031DD429D529DA292030BA00003093
:1003B000BB00E52983160313650883120313AB0002
:1003C000AC012B08BA002C08BB00C130A4003A08CD
:1003D0000A168A15BA220A128A11831203135A08BE
:1003E000031DF329F429F9292030BC000030BD0099
:1003F000042A83160313660883120313AB00AC01AF
:100400002B08BC002C08BD00C230A4003C080A1612
:100410008A15BA220A128A11C43083120313A40067
:100420008316031367080A168A15BA220A128A115C
:10043000C53083120313A4008316031368080A1639
:100440008A15BA220A128A11C63083120313A40035
:100450003A300A168A15BA220A128A11C730831254
:100460000313A4008316031369080A168A15BA2217
:100470000A128A11C83083120313A40083160313CF
:100480006A080A168A15BA220A128A1137308312AC
:1004900003133E06031D4D2A4E2A932B5408550480
:1004A000031D532A542ABA2A831603136908831298
:1004B0000313AB00AC012B08F2002C08F3000A3048
:1004C000F4000030F5000A168A1548230A128A1132
:1004D000831603136A08720783120313AD000030FA
:1004E000031801307307AE002D08F03EBF002E0840
:1004F0000318013EFD3EC0003C30F2000030F30026
:100500003F08013EF40040080318013E003EF5009C
:100510000A168A15A9270A128A117308831203136F
:10052000C0007208BF000A30F2000030F30040083B
:10053000F5003F08F4000A168A11BD220A128A113A
:100540007208303E83160313E9000A30F2000030CF
:10055000F300831203134008F5003F08F4000A1665
:100560008A15A9270A128A117208303E83160313CE
:10057000EA00B02B54035504031DBF2AC02A262BC2
:1005800083160313670883120313AB00AC012B0817
:10059000F2002C08F3000A30F4000030F5000A16CF
:1005A0008A1548230A128A118316031368087207F2
:1005B00083120313AD000030031801307307AE003F
:1005C0002D08F03EC1002E080318013EFD3EC2007A
:1005D0003C30F2000030F3004108013EF4004208D4
:1005E0000318013E003EF5000A168A15A9270A12D3
:1005F0008A11730883120313C2007208C1000A3003
:10060000F2000030F3004208F5004108F4000A1639
:100610008A11BD220A128A117208303E8316031312
:10062000E7000A30F2000030F3008312031342089F
:10063000F5004108F4000A168A15A9270A128A1142
:100640007208303E83160313E800B02B02305406C4
:100650005504031D2C2B2D2BB02B8316031365087B
:1006600083120313AB00AC012B08F2002C08F3003B
:100670000A30F4000030F5000A168A1548230A12E1
:100680008A11831603136608720783120313AD00E1
:100690000030031801307307AE002D08F03EC30090
:1006A0002E080318013EFD3EC4001830F200003051
:1006B000F3004308013EF40044080318013E003EE5
:1006C000F5000A168A15A9270A128A1173088312DF
:1006D0000313C4007208C3000A30F2000030F300B4
:1006E0004408F5004308F4000A168A11BD220A12D4
:1006F0008A117208303E83160313E5000A30F200B7
:100700000030F300831203134408F5004308F4009B
:100710000A168A15A9270A128A117208303E831612
:100720000313E600B02B2F303E06031D982B992BA8
:10073000B02B0330F2000030F3005408013EF40007
:1007400055080318013E003EF5000A168A15A92730
:100750000A128A11730883120313D5007208D40099
:100760000A30F2008316031365080A168A159422CC
:100770000A128A11831603136607F03E0A168A15B9
:1007800040250A128A1183120313AF000A30F200C7
:100790008316031367080A168A1594220A128A110F
:1007A000831603136807F03E0A168A1540250A12BD
:1007B0008A1183120313B0000A30F2008316031368
:1007C00069080A168A1594220A128A1183160313DD
:1007D0006A07F03E0A168A1540250A128A1183120A
:1007E0000313B1002F08F30002300A168A15E8221D
:1007F0000A128A11831203133008F30001300A161B
:100800008A15E8220A128A11831203133108F300B1
:1008100000300A168A15E8220A128A1100300A16D8
:100820008A1571240A128A11373A031D182C192CC3
:10083000302C1430831603132B062C04031D212C9B
:10084000222C292CAB01AC010130A9000030AA00F8
:100850003C2C0130AB070318AC0A0030AC073C2C31
:100860008316031329082A040319372C382C3A2C31
:1008700017306B2CA901AA0100300A168A157124C1
:100880000A128A112F3A031D462C472C5E2C143075
:100890008316031327062804031D4F2C502C572CB6
:1008A000A701A8010130A5000030A6006A2C013084
:1008B000A7070318A80A0030A8076A2C8316031399
:1008C000250826040319652C662C682C18306B2C1F
:1008D000A501A6011630080083120313B201B3016B
:1008E000B401B5018316031359085A04031D792C6A
:1008F0007A2C492E0A168A155F220A128A11F201F1
:10090000C4300A168A150A250A128A11F2010F301C
:100910000A168A150A250A128A11A53083120313B2
:10092000A600A60B912C942C7630F6009030F700A0
:100930008030F8000A168A1542240A128A11FD2C0A
:1009400001300A168A1571240A128A1183120313C0
:10095000B10037303106031DAE2CAF2CD62C330836
:10096000803AFF0080307F02031DB82C0430320231
:100970000318BB2CBC2CD62C8312031332082D3E3B
:1009800084003130831380003208C43EA4002A3032
:100990000A168A15BA220A128A1101308312031329
:1009A000B2070318B30A0030B307FD2C2F308312AF
:1009B00003133106031DDD2CDE2CFD2C3308803A99
:1009C000FF0080307F02031DE72C04303202031841
:1009D000EA2CEB2CFD2C8312031332082D3E8400ED
:1009E0003030831380003208C43EA4002A300A1637
:1009F0008A15BA220A128A11CD2C831203133308E6
:100A0000803AFF0080307F02031D082D043032023F
:100A1000031C0B2D0C2DA02C043083120313320663
:100A20003304031D142D152D8A2D0A168A155F22F5
:100A30000A128A11A830F6009030F7008030F800D2
:100A40000A168A1542240A128A11F201C4300A16C3
:100A50008A150A250A128A118A2D01300A168A156A
:100A600071240A128A1183120313B1003730310640
:100A7000031D3B2D3C2D632D3508803AFF0080304F
:100A80007F02031D452D043034020318482D492DE3
:100A9000632D831203133408293E840031308313FD
:100AA00080003408C43EA4002A300A168A15BA22EF
:100AB0000A128A11013083120313B4070318B50A0E
:100AC0000030B5078A2D2F30831203133106031D22
:100AD0006A2D6B2D8A2D3508803AFF0080307F0209
:100AE000031D742D043034020318772D782D8A2DC0
:100AF000831203133408293E8400303083138000AE
:100B00003408C43EA4002A300A168A15BA220A12F2
:100B10008A115A2D831203133508803AFF00803062
:100B20007F02031D952D04303402031C982D992D4E
:100B30002D2D04308312031334063504031DA12D1B
:100B4000A22D492E2D30F2000030F3002930F400A0
:100B50000430F5000030F6000A168A1552270A12F2
:100B60008A1172087304031DB62DB72DEF2D0A16D6
:100B70008A155F220A128A11F2010C300A168A15B0
:100B80000A250A128A11A53083120313A600A60BA8
:100B9000C72DCA2D6530F6009030F7008030F80080
:100BA0000A168A1542240A128A114D308312031341
:100BB000A8001930A7004F30A600A60BDD2DA70B0B
:100BC000DD2DA80BDD2D2D30F7000030F8000030B2
:100BD0000A168A1515240A128A112430AE2E0A1616
:100BE0008A155F220A128A11F2010C300A168A1540
:100BF0000A250A128A11A53083120313A600A60B38
:100C0000FF2D022EB830F6009030F7008030F8004B
:100C10000A168A1542240A128A11A730F60091306A
:100C2000F700C330F8000A168A1542240A128A1106
:100C3000FE3083120313A800A730A7006530A6007A
:100C4000A60B202EA70B202EA80B202EFE308312E1
:100C50000313A800A730A7006530A600A60B2E2E10
:100C6000A70B2E2EA80B2E2EFE3083120313A800E6
:100C7000A730A7006530A600A60B3C2EA70B3C2E84
:100C8000A80B3C2E0A168A155F220A128A112330FD
:100C9000AE2E8316031359085A040319502E512EF1
:100CA000AD2E00300A168A1571240A128A11373ABD
:100CB000031D5B2E5C2E732E143083160313330634
:100CC0003404031D642E652E6C2EB301B401013073
:100CD000B1000030B2007F2E0130B3070318B40A10
:100CE0000030B4077F2E8316031331083204031932
:100CF0007A2E7B2E7D2E2130AE2EB101B201003036
:100D00000A168A1571240A128A112F3A031D892E98
:100D10008A2EA12E1430831603132F063004031DD0
:100D2000922E932E9A2EAF01B0010130AD0000300B
:100D3000AE00AD2E0130AF070318B00A0030B00787
:100D4000AD2E831603132D082E040319A82EA92EE9
:100D5000AB2E2230AE2EAD01AE011630080083124C
:100D60000313A90055302606031DB72EB82EC22E38
:100D70000A168A155F220A128A1183120313D601FA
:100D80000530FB00043056020318C72EC82EDF2E94
:100D9000831603135B085C040319CF2ED02EDF2EBD
:100DA0000A168A155F220A128A1101308312031370
:100DB000D6070530FB0083160313DB01DC012F305F
:100DC00083122906031DE52EE62EF62E560803197A
:100DD000EA2EEB2EF62E0A168A155F220A128A11C7
:100DE000013083120313D6020530FB00043056068F
:100DF000031DFB2EFC2E2F2FC030A4002A300A1614
:100E00008A15BA220A128A11831203135608A70000
:100E100027079A3E840083170008F600840A00081A
:100E20008403F7008230F8000A168A1542240A1259
:100E30008A11831203135608A70027079C3E8400DB
:100E400083170008F600840A00088403F700C23004
:100E5000F8000A168A1542240A128A11612F80307E
:100E6000A4002A300A168A15BA220A128A1183129D
:100E700003135608A70027079C3E84008317000829
:100E8000F600840A00088403F7008230F8000A168E
:100E90008A1542240A128A11831203135608A700E6
:100EA00027079E3E840083170008F600840A000886
:100EB0008403F700C230F8000A168A1542240A1289
:100EC0008A117B08031D652F662F682F1330982F1A
:100ED00000300A168A1571240A128A113D3A031D40
:100EE000722F732F8A2F143083160313550656045E
:100EF000031D7B2F7C2F832FD501D6010130D3001A
:100F00000030D400952F0130D5070318D60A0030E1
:100F1000D607952F83160313530854040319912FF2
:100F2000922F932F662FD301D401831203135608F7
:100F300008000030F6000030F5000030F40000300A
:100F4000F30083120313230822042104200403194D
:100F5000AA2FAB2FF62F0130F700B92F0130F20086
:100F60000310A00DA10DA20DA30DF20BB02F0130A7
:100F7000F707A31FBC2FBD2FAE2F0130F2000310C7
:100F8000F30DF40DF50DF60DF20BBF2F230827021C
:100F9000031DD42F22082602031DD42F2108250269
:100FA000031DD42F20082402031CD72FD82FE72F8E
:100FB0002008A4022108031C210FA5022208031CFB
:100FC000220FA6022308031C230FA702731401306B
:100FD0000310A30CA20CA10CA00CFF3E031DE82FD4
:100FE0000130F702031DF52FF62FBD2F7608A30061
:100FF0007508A2007408A1007308A0000800053459
:10100000831603139F17831203131F1408000A1675
:101010008A15B1260A128A15C230F200E530F300B3
:101020000030F4000630F5000030F6000A168A158C
:10103000EB250A128A15C830F20083120313240824
:10104000F3000130F4000230F5000030F6000A161B
:101050008A15EB250A128A150A30F2000030F300D7
:10106000831203132508A600A7012608F400270809
:10107000F5000A168A11BD220A128A157208303E3E
:1010800083160317CA000A30F2000030F3008312FF
:1010900003132508A600A7012608F4002708F50079
:1010A0000A168A15A9270A128A157208303E831675
:1010B0000317CB00CC010A168A15E9230A128A15F8
:1010C0000800831203133508BF008030BF053508C0
:1010D000B6003607C600B41F6E286F287028461465
:1010E00046080319742875288528460A031D79289F
:1010F0007A2882280030B5000030B4000030B300F8
:101100000030B200B417B5018D280030B5000030B2
:10111000B4000030B3000030B20031088039BF069F
:101120003108B6003607C700B01F972898289928BD
:101130004714470803199D289E28AE28470A031D17
:10114000A228A328AB280030B1000030B000003046
:10115000AF000030AE00B017B101B6280030B100CA
:101160000030B0000030AF000030AE003108300475
:101170002F042E04031DBD28BE28D5280030B5003D
:101180000030B4000030B3000030B2008030B4044E
:101190007F30B5043F08B5043508B1003408B0000D
:1011A0003308AF003208AE002A2A4608031DD928AA
:1011B000DA28E3280030B1000030B0000030AF0082
:1011C0000030AE002A2A4608B600B7013708B90039
:1011D00047083602B800031CB90338087F3EC00038
:1011E00039080318013E003EC1003508BE0034082E
:1011F000BD003308BC003208BB000030B500003031
:10120000B4000030B3000030B2000030C500003040
:10121000C4000030C3000030C200C701572947088E
:1012200003191329142934290130B6000310BB0D0A
:10123000BC0DBD0DBE0DB60B16290130B600031056
:10124000B20DB30DB40DB50DB60B1F29C51F29295D
:101250002A292B2932140130B6000310C20DC30D08
:10126000C40DC50DB60B2D2931083E02031D4229C0
:1012700030083D02031D42292F083C02031D42296C
:101280002E083B02031C45294629552945172E08DF
:10129000BB022F08031C2F0FBC023008031C300FA9
:1012A000BD023108031C310FBE020130C7071A30DE
:1012B0004702031C5C295D290F293E083D043C04BC
:1012C0003B040319642965298429421484290130C7
:1012D000B6000310B20DB30DB40DB50DB60B6929F0
:1012E000C51F73297429752932140130B600031003
:1012F000C20DC30DC40DC50DB60B7729FF30C00755
:101300000318C10AFF30C107B41F8729882967293C
:10131000C701C51F8C298D29A929FF304205B600B8
:10132000FF304305B700FF304405B8007F30450566
:10133000B90039083804370436040319A029A12953
:10134000A4290130C700A929321CA729A829A92945
:10135000A12947080319AD29AE29DF290130B207B9
:10136000003003180130B307003003180130B40710
:10137000003003180130B507351CBF29C029DF290B
:101380003208B6003308B7003408B8003508B90091
:101390000130BA00390DB90CB80CB70CB60CBA0B49
:1013A000CA293908B5003808B4003708B300360830
:1013B000B2000130C0070318C10A0030C10741085C
:1013C000803AFF0080307F02031DE829FF30400291
:1013D000031CEB29EC29FA29FF3083120313C00008
:1013E0000030C1000030B5000030B4000030B30060
:1013F0000030B200831203134108803AFF008030AE
:101400007F02031D052A013040020318082A092A19
:10141000162A83120313C001C1010030B500003049
:10142000B4000030B3000030B200BF0183120313D8
:101430004008C600461C1D2A1E2A202AB417222A4C
:101440007F30B4054608B6000310360CB5003F08DF
:10145000B504CC28080083120313AE001130260611
:10146000031D332A342A452A3F30AE000330831649
:101470000313DF0083160317CD01CE01CF01D00186
:1014800083120313D7010530FB007B08031D492A93
:101490004A2A4C2A33300F2C37302E06031D512A8E
:1014A000522A6E2A043057020318572A582A6E2AE5
:1014B0005708CD3E84003130831780005708C43E62
:1014C000A4002A300A168A15BA220A128A15013097
:1014D00083120313D7070530FB008A2A2F302E060C
:1014E000031D732A742A8A2A043057020318792AA2
:1014F0007A2A8A2A5708CD3E84003030831780002C
:101500005708C43EA4002A300A168A15BA220A12C5
:101510008A15672A04305706031D8F2A902A0F2C3C
:10152000AF012F082A3E84002F080A168A15BE2311
:101530000A128A1583138000013083120313AF0748
:1015400004302F02031CA52AA62A912ACD30F200CE
:101550000130F3002A30F4000430F5000030F600CA
:101560000A168A1552270A128A1572087304031D77
:10157000BA2ABB2AE92A0A168A155F220A128A1594
:10158000F2010C300A168A150A250A128A15A530AE
:1015900083120313A700A70BCB2ACE2A3230F60002
:1015A0009130F7008130F8000A168A1542240A1299
:1015B0008A15333083120313A900BB30A800DF3033
:1015C000A700A70BE12AA80BE12AA90BE12A4430C6
:1015D0000F2C013083160313DF025F08031DF12A6D
:1015E000F22AAF2B0A168A155F220A128A15F20117
:1015F0000C300A168A150A250A128A15A53083129C
:101600000313A700A70B022B052B9830F600903090
:10161000F7008030F8000A168A1542240A128A154B
:101620009030F6009130F700C030F8000A168A15A5
:1016300042240A128A153C3083120313D800A42BCB
:10164000831203135808031D262B272B312B3C3004
:10165000D800013083160313EC020030031CED03A5
:10166000ED02CA308312A4000A30F2000030F30009
:10167000831603136D08F5006C08F4000A168A152A
:101680002C260A128A157208303E0A168A15BA22CA
:101690000A128A15CB3083120313A4000A30F20019
:1016A0000030F300831603136D08F5006C08F40096
:1016B0000A168A1577250A128A157208303E0A160C
:1016C0008A15BA220A128A15CC3083120313A40099
:1016D0003A300A168A15BA220A128A15CD308312B8
:1016E0000313A4000A30F2000030F3005808A700EA
:1016F000A8012708F4002808F5000A168A11BD225F
:101700000A128A157208303E0A168A15BA220A127F
:101710008A15CE3083120313A4000A30F200003081
:10172000F3005808A700A8012708F4002808F500CE
:101730000A168A15A9270A128A157208303E0A1657
:101740008A15BA220A128A15831603136C086D04CF
:10175000031DAB2BAC2B202B0330DF00E52B0A162F
:101760008A155F220A128A15F630F6009030F700CB
:101770008030F8000A168A1542240A128A15C130F0
:1017800083120313A400831603135F08303E0A1666
:101790008A15BA220A128A154E30F6009130F700E7
:1017A000C330F8000A168A1542240A128A154D30F1
:1017B00083120313A9001930A8004F30A700A70B0C
:1017C000DF2BA80BDF2BA90BDF2B0A168A155F2254
:1017D0000A128A152330F6009130F7008030F800A5
:1017E0000A168A1542240A128A15F201C4300A1612
:1017F0008A150A250A128A15F2010F300A168A156F
:101800000A250A128A15A53083120313A700A70B15
:10181000072C0A2C83120313D7010530FB000800A4
:10182000013083160317BE00BD0190308400A9303B
:1018300083120313D0000C30D10083170008D200AC
:10184000040AD3005008840052088000040AD00023
:1018500053088400D10B1D2C831603172608B600ED
:101860002708B7002808B800BA01BB01BC010A1656
:101870008A156E260A128A15B63083120313A40045
:10188000A5010A128A1507200A128A15B230F7003C
:101890009130F80000300A168A1515240A128A15AC
:1018A00001300A168A1571240A128A158316031745
:1018B000BF00C830B5000130B502350A031D612CE8
:1018C000622C5B2C3E303F06031D672C682C832C5A
:1018D000B630F200CA30F3009130F4000A168A15CF
:1018E00027230A128A15B63083120313A400831625
:1018F00003173D0883120313A5000A128A15072057
:101900000A128A151B2D3D303F06031D882C892C99
:10191000B82C06303A0203188E2C8F2CB82CB63017
:10192000F2003A0883120313D0005007A93E840046
:1019300083170008F300840A00088403F4000A16E1
:101940008A1527230A128A15013083160317BA074E
:10195000B63083120313A400831603173D088312C5
:101960000313A5000A128A1507200A128A151B2DD7
:101970003B303F06031DBD2CBE2CDB2C3A0803195F
:10198000C22CC32CDB2C0130BA02B630F2003A086C
:1019900083120313D0005007A93E84008317000868
:1019A000F300840A00088403F4000A168A1527232A
:1019B0000A128A15A82C37303F060319E02CE12CB7
:1019C000E72C2F303F06031DE62CE72C1B2D3E0392
:1019D000031DEB2CEC2C1B2D0230BE000A168A15C1
:1019E0005F220A128A152330F6009130F700813009
:1019F000F8000A168A1542240A128A15F201C43028
:101A00000A168A150A250A128A15F2010F300A16DB
:101A10008A150A250A128A15A53083120313D000ED
:101A2000D00B102D132D113083160317B90083121C
:101A3000031312151B2D00300A168A1571240A1281
:101A40008A15373A031D252D262D482D0330831680
:101A500003173E06031D2D2D2E2D482D0130BB07EB
:101A60000318BC0A0030BC0714303B063C04031DBD
:101A70003A2D3B2DBB2D013083160313DD000030C2
:101A8000DE001E3083160317BB000030BC00BB2DE8
:101A9000831603173B083C0403194F2D502D632D6B
:101AA00000303C02143003193B020318582D592D05
:101AB000632D013083160313DB000030DC00831636
:101AC0000317BB01BC01831603135D085E040319F1
:101AD0006A2D6B2DAE2D831203135908031D712D32
:101AE000722D7B2D0A168A155F220A128A1566301E
:101AF00083160317BE00831203135903031D812DA0
:101B0000822D862D773083160317BE000230831294
:101B100003135906031D8D2D8E2D922D88308316AB
:101B20000317BE000330831203135906031D992DBA
:101B30009A2D9E2D993083160317BE000430831210
:101B400003135906031DA52DA62DAA2D10308316AB
:101B50000317BE0083160313DD01DE010030831678
:101B600003173C02C83003193B020318B82DB92DE6
:101B7000BB2DBB01BC010A168A1582220A128A15E6
:101B8000720883120313D0007308D100D201D3016D
:101B90005308A3005208A2005108A1005008A00059
:101BA00000300A168A1116240A128A1583120313AA
:101BB0002308B5002208B4002108B3002008B200B1
:101BC0004130B1002430B0000030AF000030AE0032
:101BD0000A128A1561200A128A158312031331082A
:101BE000CB003008CA002F08C9002E08C8000A160A
:101BF0008A1122230A128A158312031348088316B6
:101C00000317BD00DE2F83160313D901DA01B630A6
:101C100083120313A600831603173D0883120313D0
:101C2000A7000A168A15FE260A128A15F82F013017
:101C300083160317BE000A168A155F220A128A1538
:101C4000F2010C300A168A150A250A128A15A530E7
:101C500083120313D000D00B2B2E2E2E83120313CE
:101C60001211F82F033083160317BE00F2010C3057
:101C70000A168A150A250A128A15A530831203133B
:101C8000D000D00B412E442E831203131211553075
:101C900083160317B900502C390883120313A600CA
:101CA000831603173F080A128A152B220A128A1577
:101CB000333A0319172E773A0319322EF82F831669
:101CC0000313D901DA0183120313121583160317C4
:101CD000390883120313A600831603173F080A125C
:101CE0008A11AF260A128A1583120313D900133002
:101CF0005906031D7C2E7D2EF82F01308316031705
:101D0000BE000A168A155F220A128A15F2010C30EB
:101D10000A168A150A250A128A15272E3F080A165E
:101D20008A1164260A128A1583160313E400C32E4F
:101D3000033083160317BE000530FB000A168A1510
:101D40005F220A128A15F2010C300A168A150A253A
:101D50000A128A15A53083120313D000D00BAE2EC1
:101D6000B12EF82F013083160317BE000A168A150C
:101D70005F220A128A15F2010C300A168A150A250A
:101D80000A128A15AA2E6408143A0319982E013AE9
:101D90000319B22EF82F0A168A1198230A128A15EF
:101DA00083160313E200F82E033083160317BE00D8
:101DB0000530FB000A168A155F220A128A15F20105
:101DC0000C300A168A150A250A128A15AA2E013025
:101DD00083160317BE000A168A155F220A128A1597
:101DE000F2010C300A168A150A250A128A15AA2E43
:101DF0006208193A0319D42E393A0319E72EF82F3D
:101E00003F080A168A11CC240A128A158316031376
:101E1000E1002E2F033083160317BE000530FB00B0
:101E20000A168A155F220A128A15F2010C300A1668
:101E30008A150A250A128A15AA2E0130831603175D
:101E4000BE000A168A155F220A128A15F2010C30AA
:101E50000A168A150A250A128A15AA2E6108213A3D
:101E600003190A2F033A03191D2FF82F3F080A12EE
:101E70008A1155200A128A1583160313E300642F72
:101E8000033083160317BE000530FB000A168A15BF
:101E90005F220A128A15F2010C300A168A150A25E9
:101EA0000A128A15AA2E013083160317BE000A16DD
:101EB0008A155F220A128A15F2010C300A168A1559
:101EC0000A250A128A15AA2E6308173A0319402F09
:101ED0000F3A0319532FF82F3F080A128A116C2466
:101EE0000A128A1583160313E000D02F03308316DD
:101EF0000317BE000530FB000A168A155F220A127E
:101F00008A15F2010C300A168A150A250A128A155A
:101F1000AA2E013083160317BE000A168A155F2207
:101F20000A128A15F2010C300A168A150A250A12BD
:101F30008A15AA2E103083160317BE000A168A15BA
:101F40005F220A128A15F2010C300A168A150A2538
:101F50000A128A15A53083120313D000D00BAE2FBE
:101F6000B12F83160313D901DA01F82F0A168A1547
:101F70005F220A128A15F2010C300A168A150A2508
:101F80000A128A15A53083120313D000D00BC62F76
:101F9000C92F013083160313D9000030DA00F82F5F
:101FA0006008213A0319762F033A0319892F013A61
:101FB00003199A2F073A0319B62FF82F3E08013A52
:101FC0000319032E033A03194C2E013A03195F2E0D
:101FD000133A03196C2F763A03198E2E113A03190E
:101FE000CB2EFF3A0319002F113A0319362FF82F81
:101FF000123083160317B900502C0A128A110C28CC
:102000000A340A342D342D342D342D342D342D340E
:102010002D342D342D342D342D342D342D342D34B8
:102020002D342D342D342D342A342D342D342D34AB
:102030002D342D342D342D342D342D342D342D3498
:102040002D342D342D342D342D342D342D342D3488
:102050002D342D340A340A340034543449344D3488
:1020600045342034203420342034203420342034AB
:10207000203420342034203420342034203445349B
:1020800020342034203420342034203420342034B0
:1020900020342034203420342034203420342034A0
:1020A000533450340A34003443344C3445344134CE
:1020B000523445344434203441344C344C3420348C
:1020C0004C344F3447345334003450346134733417
:1020D000733477346F347234643420344334683466
:1020E00061346E34673465346434003445346E349E
:1020F00074346534723420344E346534773420348B
:102100005034613473347334773464340034553468
:1021100041345234543420345434453453345434D8
:10212000203443344F34443445340A340D340034BD
:1021300059346F347534203461347234653420344A
:1021400062346C346F3463346B346534643400341B
:10215000523465342D3445346E34743465347234FD
:10216000203450346134733473347734643400343D
:1021700050346134733473347734643420344D34E0
:10218000693473346D3461347434633468340034C6
:1021900048346F34753472342034663469346534AD
:1021A0006C34643420344534643469347434003419
:1021B000203420342034203420342034203420347F
:1021C000203420342034203420342034003454345B
:1021D00049344D34453420342034203420342034E4
:1021E000453420342034533450340034573472345E
:1021F0006F346E3467342034503461347334733444
:1022000077346F3472346434003453346534633457
:1022100020346634693465346C3464342034453495
:1022200064346934743400344D3469346E34203489
:102230006634693465346C34643420344534643431
:1022400069347434003445344E3454344534523493
:102250002034503441345334533457344F3452348F
:10226000443400344C344F34473449344E342034F1
:1022700053345534433443344534533453340034A5
:102280004334683461346E34673465345F34703499
:1022900061347334733477346434003441347434C7
:1022A000743465346D3470347434733420344C3485
:1022B000653466347434003444346F3477346E34A7
:1022C0006C346F34613464345F346C346F3467342D
:1022D0000034543449344D344534203420344534AA
:1022E000203453345034003443346C346534613416
:1022F00072345F344C346F34673400345334653493
:1023000074345F34743469346D3465340034563455
:102310006934653477345F344C346F346734003457
:102320005734613469347434203466346F34723411
:102330000034433475347434653463346F346D342D
:1023400000344C344F34473453340A34003452345C
:10235000653474347234793400344F3470346534F5
:102360006E340034313430343134303400344C3451
:102370004F34473400344734313400344734323436
:102380000034473433340034473434340034473471
:102390004E34003443344F34003447345234003424
:1023A200F6000A168A1509220A168A11A0300A16A0
:1023B2008A1524220A168A1176080A168A152422F8
:1023C2000A168A1173080A168A1524220A168A1115
:1023D2000A168A1512220A168A111430F50079306B
:1023E200F400F40BF229F50BF229F72908000A167A
:1023F2008A15B1260A168A11C13083120313A4006A
:102402008316031365080A168A15BA220A168A1158
:10241200C23083120313A4008316031366080A163C
:102422008A15BA220A168A11C33083120313A40032
:102432003A300A168A15BA220A168A11C430831251
:102442000313A4008316031367080A168A15BA2217
:102452000A168A11C53083120313A40083160313CC
:1024620068080A168A15BA220A168A11C630831219
:102472000313A4003A300A168A15BA220A168A11E0
:10248200C73083120313A4008316031369080A16C4
:102492008A15BA220A168A11C83083120313A400BD
:1024A200831603136A080A168A15BA220A168A11B3
:1024B2000800C330F700CD30F600F60B5E2AF70BAA
:1024C2005E2AF20133300A168A150A250A168A1183
:1024D2001B30F7009E30F600F60B6D2AF70B6D2AC3
:1024E2000000F20133300A168A150A250A168A11EB
:1024F200A630F600F60B7B2A0000F20133300A16F2
:102502008A150A250A168A11862A872A0000F201EC
:1025120002300A168A150A250A168A11A630F60012
:10252200F60B912A0000F20128300A168A150A25B4
:102532000A168A11A630F600F60B9D2A0000F20157
:1025420001300A168A150A250A168A110430F70084
:102552003D30F600F60BAB2AF70BAB2AB02AF2019C
:102562000C300A168A150A250A168A11A630F600B8
:10257200F60BB92A0000080083120313A101F31F0E
:10258200C32AC42ACB2AF209F309F20A0319F30A6D
:102592000130A100F51FCE2ACF2AD62AF409F50967
:1025A200F40A0319F50A0130A106A201A301720877
:1025B20073040319DD2ADE2A132B0130A000EA2A54
:1025C20001300310F20DF30DFF3E031DE22A01302C
:1025D200A007F31FED2AEE2AE12A01300310A20D13
:1025E200A30DFF3E031DEF2A73087502031DFB2A8C
:1025F20072087402031CFE2AFF2A062B7208F402D8
:102602007308031CF503F502221401300310F30CC6
:10261200F20CFF3E031D072B0130A002031D122BFB
:10262200132BEE2A21080319172B182B1D2BA20995
:10263200A309A20A0319A30A2308F3002208F2003D
:1026420008000310831203134A0D4B0DF70077089D
:10265200031D2C2B2D2B362B0030CB000030CA0053
:102662000030C9000030C800972B4808CC00490848
:10267200CD004A08CE004B08CF001F300310CF0C0C
:10268200CE0CCD0CCC0CFF3E031D3F2B4C08F600AC
:10269200CA17FF30C805FF30C905FF30CA05003030
:1026A200CB059630F702F71F572B582B702B770864
:1026B200803A973E03185E2B5F2B602B2D2B013047
:1026C2000310CB0CCA0CC90CC80CFF3E031D612BB6
:1026D2000130F707031D6E2B6F2B602B872B2030E9
:1026E2007702031C752B762B822B2D2B0130CC000D
:1026F2000310C80DC90DCA0DCB0DCC0B792B0130BF
:10270200F7027708031D862B872B772B7608031990
:102712008B2B8C2B972BC809C909CA09CB09C80A6C
:102722000319C90A0319CA0A0319CB0A0800831636
:10273200031341084204031D9F2BA02BB62B0A163C
:102742008A155F220A168A115430F6009030F7007B
:102752008030F8000A168A1542240A168A110130BE
:1027620083160313C1000030C200D701D801003024
:102772000A168A1571240A168A11373A031DC22BCA
:10278200C32BDA2B14308316031349064A04031DA4
:10279200CB2BCC2BD32BC901CA010130C70000308F
:1027A200C800E62B0130C9070318CA0A0030CA075D
:1027B200E62B83160313470848040319E12BE22B87
:1027C200E42B1930152CC701C80100300A168A15EE
:1027D20071240A168A112F3A031DF02BF12B082CB3
:1027E20014308316031345064604031DF92BFA2BF6
:1027F200012CC501C6010130C3000030C400142CF5
:102802000130C5070318C60A0030C607142C831608
:1028120003134308440403190F2C102C122C2030EC
:10282200152CC301C4011630080083120313A8003B
:10283200280803191D2C1E2C322CA31F212C222CFC
:10284200322C2009AA002109AB002209AC0023097D
:10285200AD00AA0A0319AB0A0319AC0A0319AD0A9F
:102862003A2C2308AD002208AC002108AB00200856
:10287200AA002308220421042004031D412C422C17
:102882004B2C0030A3000030A2000030A100003029
:10289200A000CB2C9630A900592C0130A907013099
:1028A2000310AD0CAC0CAB0CAA0CFF3E031D512C5B
:1028B200FE302D05031D5E2C5F2C4E2C792C013031
:1028C200A9070130AA07003003180130AB07003016
:1028D20003180130AC07003003180130AD07013096
:1028E2000310AD0CAC0CAB0CAA0CFF3E031D712CFB
:1028F200FF302D05031D7E2C7F2C602C8B2C01308C
:10290200A9020130A4000310AA0DAB0DAC0DAD0D50
:10291200A40B842CAC1B8E2C8F2C952C02302902FC
:102922000318942C952C802C2918982C992CA12CC6
:10293200FF30AA05FF30AB057F30AC05FF30AD0597
:102942000310A90C2908A400A501A601A7011830AB
:102952000310A40DA50DA60DA70DFF3E031DA92C66
:102962002408AA042508AB042608AC042708AD04F1
:1029720028080319BD2CBE2CC32CA31FC12CC22CAA
:10298200C32CAD172D08A3002C08A2002B08A10010
:102992002A08A0000800831603133F084004031D01
:1029A200D32CD42CF52C0A168A155F220A168A110A
:1029B200AD30F6009130F7008530F8000A168A151E
:1029C20042240A168A119930F6009130F700C53078
:1029D200F8000A168A1542240A168A110130831653
:1029E2000313BF000030C0003608803AFF00803079
:1029F2007F02031DFE2C0A303502031C012D022D1D
:102A0200062D83160313B501B6010A30F2008316B0
:102A1200031335080A168A1594220A168A11053EEE
:102A220083120313B500B601B701831203133608EC
:102A3200203E8400360835070A168A15BE230A1678
:102A42008A1183138000013083120313B60703181F
:102A5200B70A0030B7073708803AFF0080307F029C
:102A6200031D352D0A303602031C382D392D162D43
:102A720083120313B801B901831203133808203EED
:102A8200840083130008FF0038082A3E84007F0870
:102A920080000130B8070318B90A0030B9073908B5
:102AA200803AFF0080307F02031D592D0A30380220
:102AB200031C5C2D5D2D3D2D83120313B40183167F
:102AC200031335083604031D672D682D7A2DA130B6
:102AD200F3009130F4000A168A156D230A168A1142
:102AE2002D30F3009030F4000A168A156D230A1671
:102AF2008A11831203132A080A168A152F220A162C
:102B02008A11831203132B080A168A152F220A161A
:102B12008A113A300A168A152F220A168A1183124E
:102B220003132C080A168A152F220A168A118312F9
:102B320003132D080A168A152F220A168A113A3013
:102B42000A168A152F220A168A11831203132E08D7
:102B52000A168A152F220A168A11831203132F08C6
:102B62000A168A152F220A168A11DE30F3009030D7
:102B7200F4000A168A156D230A168A1183120313AA
:102B820030080A168A152F220A168A118312031395
:102B920031080A168A152F220A168A11D830F30034
:102BA2009030F4000A168A156D230A168A118312D0
:102BB200031332080A168A152F220A168A11831263
:102BC200031333080A168A152F220A168A110A30AD
:102BD2000A168A152F220A168A1101308316031348
:102BE200B5070318B60A0030B6070A3035063604B0
:102BF200031DFC2DFD2D062E0030F3009030F40055
:102C02000A168A156D230A168A1100300A168A15C9
:102C120071240A168A11373A031D102E112E282EFE
:102C22001430831603133D063E04031D192E1A2E7B
:102C3200212EBD01BE010130BB000030BC00342E8C
:102C42000130BD070318BE0A0030BE07342E8316BA
:102C520003133B083C0403192F2E302E322E213051
:102C6200632EBB01BC0100300A168A1571240A16B4
:102C72008A112F3A031D3E2E3F2E562E14308316F4
:102C8200031339063A04031D472E482E4F2EB9016D
:102C9200BA010130B7000030B800622E0130B90726
:102CA2000318BA0A0030BA07622E831603133708D4
:102CB200380403195D2E5E2E602E2230632EB7017A
:102CC200B8011630080083120313BC000A307906DB
:102CD2007A04031D6D2E6E2E702EF901FA010A3050
:102CE200F20079080A168A1594220A168A11053EFC
:102CF20083120313BB0037303C06031D812E822E44
:102D02009B2E7A08803AFF0080307F02031D8B2EB3
:102D12000930790203188E2E8F2E9B2E0A168A15E1
:102D22005F220A168A110130F9070318FA0A0030E5
:102D3200FA07BB2E2F30831203133C06031DA22E6B
:102D4200A32EBB2E7A08803AFF0080307F02031D3B
:102D5200AC2E01307902031CAF2EB02EBB2E0A1608
:102D62008A155F220A168A11FF30F9070318FA0A38
:102D7200FF30FA0783120313BD01BE01831203134E
:102D82003D08263E84003D083B070A168A15BE23ED
:102D92000A168A1183138000013083120313BD07C0
:102DA2000318BE0A0030BE073E08803AFF0080309A
:102DB2007F02031DDE2E0A303D02031CE12EE22EAD
:102DC200BF2E83120313BF01C001831203133F08F6
:102DD200263E840083130008FF003F08303E840033
:102DE2007F0880000130BF070318C00A0030C00707
:102DF2004008803AFF0080307F02031D022F0A3014
:102E02003F02031C052F062FE62E83120313BA017D
:102E1200B730F6009130F7008030F8000A168A15B4
:102E220042240A168A11833083120313A4007908FC
:102E3200303E0A168A15BA220A168A116930F6003D
:102E42009130F7008630F8000A168A1542240A16D5
:102E52008A11C23083120313A40030080A168A159D
:102E6200BA220A168A11C33083120313A40031084E
:102E72000A168A15BA220A168A11C430831203135B
:102E8200A4003A300A168A15BA220A168A11C530E7
:102E920083120313A40032080A168A15BA220A16EC
:102EA2008A11C63083120313A40033080A168A1546
:102EB200BA220A168A11C73083120313A4003A30C9
:102EC2000A168A15BA220A168A11C8308312031307
:102ED200A40034080A168A15BA220A168A11C930C1
:102EE20083120313A40035080A168A15BA220A1699
:102EF2008A11CB3083120313A40036080A168A15EE
:102F0200BA220A168A11CC3083120313A40037089E
:102F12000A168A15BA220A168A11CE3083120313B0
:102F2200A40038080A168A15BA220A168A11CF3066
:102F320083120313A40039080A168A15BA220A1644
:102F42008A1100300A168A1571240A168A11373A34
:102F5200031DAC2FAD2FC42F14308316031351065B
:102F62005204031DB52FB62FBD2FD101D20101305E
:102F7200CF000030D000D02F0130D1070318D20A81
:102F82000030D207D02F831603134F0850040319C1
:102F9200CB2FCC2FCE2F1430FF2FCF01D0010030FA
:102FA2000A168A1571240A168A112F3A031DDA2F7E
:102FB200DB2FF22F1430831603134D064E04031D2C
:102FC200E32FE42FEB2FCD01CE010130CB000030F7
:102FD200CC00FE2F0130CD070318CE0A0030CE07F9
:102FE200FE2F831603134B084C040319F92FFA2FF3
:102FF200FC2F1530FF2FCB01CC0116300800FF1B30
:103002000A2883137F1883170008840A0319FF0A0A
:1030120008007F087F398A000408840A0319FF0A1E
:0230220082002A
:1033F0000E34003401348316031306083F38860068
:10340000080064008001840A0406031900340406DD
:10341000022A0A168A1545220A168A1583160313EC
:10342000111408000A168A1545220A168A158316F1
:103430000313111508000A168A1545220A168A1563
:103440008316031311140800F2000A168A15452288
:103450000A168A1572088312031393000800F200FB
:1034600072088312031399000C1E372A382A342A53
:103470000C120800831603138801091189100A161B
:103480008A115A220A168A15080083160313141982
:103490004A2A4B2A452A11081F39031D502A512A4E
:1034A000452A08008312031312149214FA3083166B
:1034B000031392008C148312031312110800F201FB
:1034C00001300A168A150A250A168A150430F700F3
:1034D0003D30F600F60B6A2AF70B6A2A6F2A0800BD
:1034E00000300A168A1593230A168A15F6007F30D3
:1034F000F6057608F30000300A168A15E8220A1647
:103500008A150800831203131F151F19882A892A98
:10351000852A1E08F500831603131E08F40075089B
:10352000F3007408F2000800F400F301741C992AF7
:103530009A2A9C2A7208F3070310F20D0310F40C68
:103540007408031DA42AA52A962A730808007E0879
:103550008A007F0882000A168A15A7220A168A1591
:103560008000840A04087D0603190034FF0A031949
:10357000FE0AAB2A83120313A500F20124080A16DF
:103580008A150A250A168A15F201F20A8312031314
:1035900025080A168A150A250A168A150800CD3448
:1035A0009134C7349134BB349134BE349134C13436
:1035B0009134C434913487349134743491345C340C
:1035C00091347E349134403491344F344E3400344D
:1035D000F4000A168A1509220A168A15D0300A162E
:1035E0008A1524220A168A1574080A168A152422B6
:1035F0000A168A1573080A168A1524220A168A15CD
:103600000A168A1512220A168A150800F2000A16EE
:103610008A1545220A168A158316031391150A1670
:103620008A1545220A168A15831203131308F3001C
:103630007203031D1C2B1D2B212B831603139116C4
:10364000242B8316031391121116730808007208B5
:10365000F7007408F6007308F500F30A0319F40A7A
:10366000760883120313FF00750884000A168A1572
:1036700000200A168A15FF007708F70A84007F08E1
:10368000831780000008031D462B472B292B0800B9
:10369000F601F701721C4D2B4E2B542B7408F607C4
:1036A0000318F70A7508F70701300310F40DF50D3C
:1036B000FF3E031D552B01300310F30CF20CFF3EAF
:1036C000031D5C2B72087304031D672B682B4A2BA8
:1036D0007708F3007608F2000800822B7408FF00D8
:1036E000730884000A168A1500200A168A150A161D
:1036F0008A152F220A168A150130F3070318F40AD7
:103700000030F407740883120313FF007308840069
:103710000A168A1500200A168A15003A031D912BF5
:10372000922B6E2B0800F4000A168A1509220A163D
:103730008A15D0300A168A1524220A168A157408AA
:103740000A168A1524220A168A150A168A151B22B9
:103750000A168A15D1300A168A1524220A168A15E5
:1037600000300A168A1506230A168A15F5000A166D
:103770008A1512220A168A1575080800F4000A161E
:103780008A1509220A168A15A0300A168A152422DB
:103790000A168A1574080A168A1524220A168A152A
:1037A0000A168A151B220A168A15A1300A168A15CE
:1037B00024220A168A1500300A168A1506230A16CC
:1037C0008A15F5000A168A1512220A168A15750836
:1037D00008000A308316031357065804031DF12B03
:1037E000F22BF42BD701D8010A30F20057080A1641
:1037F0008A1594220A168A15053E83120313A10026
:10380000013083160313D7070318D80A0030D807EE
:10381000C230F7000130F8008312031321080A16A2
:103820008A1515240A168A15080083120313A000AE
:10383000332C7808FF00770884000A168A150020C8
:103840000A168A15F30020080A168A11D1210A16D1
:103850008A150130F7070318F80A0030F80701301D
:1038600083120313A0077808FF00770884000A1664
:103870008A1500200A168A15003A031D402C412C97
:10388000192C0800F20178080A168A150A250A166A
:103890008A15602CF201F20A7708FF00760884008E
:1038A0000A168A1500200A168A150A168A150A258C
:1038B0000A168A150130F6070318F70A0030F707D1
:1038C000770883120313FF00760884000A168A150E
:1038D00000200A168A15003A031D6F2C702C4A2C02
:1038E0000800F3007308031D762C772C7C2C8312C0
:1038F000031306083F399F2C3F308312031306053C
:10390000F2003F3072060319862C872C902C831608
:1039100003136E0803198D2C8E2C902CEE01772C3E
:103920003F3083120605F2003F307206031D992CCA
:103930009A2C9E2C013083160313EE003F300800B2
:103940008312031394152808AC002908AD002A0837
:10395000AE002B08AF0002300310AC0DAD0DAE0D64
:10396000AF0DFF3E031DAC2C2F08A3002E08A200B4
:103970002D08A1002C08A0000130A7003130A600BE
:103980002D30A5000030A4000A128A1199270A16CA
:103990008A15831203132008FF3E83160313930036
:1039A0008312031394160800831203138C1CD92C62
:1039B000DA2C032D013083160317C0070318C10A40
:1039C0000030C107E2304006043003194106031DF0
:1039D000EA2CEB2C002D8312031358080319F12C49
:1039E000F22CF52C0130D802FC2C7B080319F92CA1
:1039F000FA2CFC2C0130FB0283160317C001C10115
:103A0000831203138C1071088A00700E8300FE0E5F
:103A10007E0E0900F50072180E2D122D831203136D
:103A20000915152D8312031309117508F039880043
:103A30008914A630F300F30B1B2D0000831203132F
:103A4000891075080F39F30003300310F30DFF3EA2
:103A5000031D252D0310730D88008914A630F30073
:103A6000F30B302D00008312031389101B30F40078
:103A70009E30F300F30B3A2DF40B3A2D00000800B2
:103A8000F8000A30F2000030F300780883120313C4
:103A9000A400A5012408F4002508F5000A168A15DB
:103AA000A9270A168A15720883120313A600730841
:103AB000A7000A30F2000030F3007808A800A9013E
:103AC0002808F4002908F5000A168A11BD220A16F2
:103AD0008A15720883120313AA0003300310AA0D7B
:103AE000FF3E031D6E2D03102A0D260408007208E8
:103AF000730403197C2D7D2DAA2D0130F600892D2C
:103B000001300310F20DF30DFF3E031D812D013036
:103B1000F607F31F8C2D8D2D802D73087502031D64
:103B2000932D72087402031C962D972D9D2D7208FB
:103B3000F4027308031CF503F50201300310F30CC3
:103B4000F20CFF3E031D9E2D0130F602031DA92D30
:103B5000AA2D8D2D7508F3007408F2000800831259
:103B6000031398178316031398168312031318165A
:103B7000831603131815831203132808AC002908B1
:103B8000AD002A08AE002B08AF0004300310AC0DC6
:103B9000AD0DAE0DAF0DFF3E031DC62D2F08A300CA
:103BA0002E08A2002D08A1002C08A0000130A700BB
:103BB0003130A6002D30A5000030A4000A128A1171
:103BC00099270A168A15831203132008FF3E8316CD
:103BD000031399000800720883120313A000102E2B
:103BE0000130F5020030031CF603F6027408F800F9
:103BF0007308F700F30A0319F40A7708840083179F
:103C0000781C83130008FF002008A00A84007F08A6
:103C1000831780000008031D0E2E0F2E102E1D2E60
:103C200075087604031D152E162EF02D1D2E200866
:103C30008400831780010130A0070130F5020030B5
:103C4000031CF603F602750A031D2A2E760A031DCD
:103C50002A2E2B2E172E0800F701F8017208730484
:103C60000319332E342E692E0130F600402E013018
:103C70000310F20DF30DFF3E031D382E0130F60741
:103C8000F31F432E442E372E01300310F70DF80D8D
:103C9000FF3E031D452E73087502031D512E720849
:103CA0007402031C542E552E5C2E7208F402730805
:103CB000031CF503F502771401300310F30CF20C2A
:103CC000FF3E031D5D2E0130F602031D682E692E96
:103CD000442E7808F3007708F200080000308312C1
:103CE0000313AB000130AA008630A900A030A80061
:103CF0000A168A15A0240A168A150A168A15702231
:103D00000A168A150A168A153A220A168A150A16FA
:103D10008A15FB210A168A150A128A1500200A162E
:103D20008A150A168A1552220A168A15003083123D
:103D30000313AB000030AA002530A9008030A80092
:103D40000A168A15AF250A168A158730F3009030B7
:103D5000F4000A168A156D230A168A158B170B179D
:103D6000080002300A168A1593230A168A1583164C
:103D70000313A00001300A168A1593230A168A1528
:103D800083160313A10000300A168A1593230A161E
:103D90008A1583160313A2002008F60004300310CE
:103DA000F60CFF3E031DCF2E76080339303EE500AA
:103DB00020080F39303EE6002108F60004300310D9
:103DC000F60CFF3E031DDF2E76080739303EE70074
:103DD00021080F39303EE8002208F60004300310B5
:103DE000F60CFF3E031DEF2E76080739303EE90042
:103DF00022080F39303EEA00EB010800E730F600F8
:103E00009030F7008230F8000A168A1542240A160C
:103E10008A150A168A11F8210A168A1583120313C5
:103E20002608F6000130F700CB30F8000A168A1594
:103E300042240A168A15CE3083120313A4000A30D6
:103E4000F2000030F3002708A800A9012808F400B8
:103E50002908F5000A168A11BD220A168A15720869
:103E6000303E0A168A15BA220A168A15CF308312F6
:103E70000313A4000A30F2000030F3002708A80062
:103E8000A9012808F4002908F5000A168A15A927AF
:103E90000A168A157208303E0A168A15BA220A16C0
:103EA0008A1508000130F5020030031CF603F60203
:103EB000750A031D5F2F760A031D5F2F602F6F2F7A
:103EC000F201F301A82F0130F2070318F30A0130C1
:103ED000F4070130F5020030031CF603F602720805
:103EE00084008317731C831300080319782F792F1C
:103EF000962F74088400831300080319802F812FE4
:103F0000962F750876040319862F872F962F74082D
:103F100084000008F700720884008317731C831361
:103F2000000877060319952F962F632F74088400D5
:103F300083130008F700720884008317731C83132F
:103F40000008F80077087802F200F301031CF3037D
:103F50000800F701F51FAD2FAE2FB52FF409F509B5
:103F6000F40A0319F50A0130F700F31FB82FB92F2F
:103F7000BE2FF209F309F20A0319F30A7208730457
:103F80000319C32FC42FF12F0130F600D02F0130B9
:103F90000310F20DF30DFF3E031DC82F0130F6078D
:103FA000F31FD32FD42FC72F73087502031DDA2FE9
:103FB00072087402031CDD2FDE2FE42F7208F40256
:103FC0007308031CF503F50201300310F30CF20C27
:103FD000FF3E031DE52F0130F602031DF02FF12FE8
:103FE000D42F77080319F52FF62FFB2FF409F509C5
:103FF000F40A0319F50A7508F3007408F2000800C2
:08400000FF3FFF3FFF3FFF3FC0
:02400E00FB3F76
:00000001FF
